{"abi":[{"type":"function","name":"send","inputs":[{"name":"recipents","type":"address[]","internalType":"address payable[]"},{"name":"amounts","type":"uint256[]","internalType":"uint256[]"}],"outputs":[],"stateMutability":"payable"},{"type":"error","name":"TotalRecipentsAndAmountsLengthMustBeSame","inputs":[]}],"bytecode":{"object":"0x6080604052348015600f57600080fd5b5061027d8061001f6000396000f3fe60806040526004361061001e5760003560e01c8063a645ff5f14610023575b600080fd5b610036610031366004610195565b610038565b005b82811461005757604051628915f160e01b815260040160405180910390fd5b60005b8381101561014257600085858381811061007657610076610201565b905060200201602081019061008b9190610217565b6001600160a01b03168484848181106100a6576100a6610201565b9050602002013560405160006040518083038185875af1925050503d80600081146100ed576040519150601f19603f3d011682016040523d82523d6000602084013e6100f2565b606091505b50509050806101395760405162461bcd60e51b815260206004820152600f60248201526e151c985b9cd9995c8819985a5b1959608a1b604482015260640160405180910390fd5b5060010161005a565b5050505050565b60008083601f84011261015b57600080fd5b50813567ffffffffffffffff81111561017357600080fd5b6020830191508360208260051b850101111561018e57600080fd5b9250929050565b600080600080604085870312156101ab57600080fd5b843567ffffffffffffffff808211156101c357600080fd5b6101cf88838901610149565b909650945060208701359150808211156101e857600080fd5b506101f587828801610149565b95989497509550505050565b634e487b7160e01b600052603260045260246000fd5b60006020828403121561022957600080fd5b81356001600160a01b038116811461024057600080fd5b939250505056fea2646970667358221220322dc52c45882ca267a388a30dde72f0db45252528d91a95b205a18ab51c36a264736f6c63430008190033","linkReferences":{}},"methodIdentifiers":{"send(address[],uint256[])":"a645ff5f"},"id":23}